:1000000052C100006EC100006CC100006AC1000056
:1000100068C1000066C1000064C1000062C1000048
:1000200060C100005EC100005CC100005AC1000058
:1000300058C1000056C1000031C2000052C100008A
:1000400050C100004EC10000BAC100004AC100000A
:1000500048C1000046C1000044C1000042C1000088
:1000600040C100003EC100000C9453010C9471018A
:100070000C9471010C9471010C9471010C94710138
:100080000C9471010C9471010C9471010C94710128
:100090000C9471010C9471010C9471010C94710118
:1000A0000C944E020C9471010C9471010C9471012A
:1000B0000C94DF010C9471010C9471010C9471018A
:1000C0000C9471010C9471010C9471010C947101E8
:1000D000BD10D110DB10E7101211F110FD10081146
:1000E0000000000000000000434F4E534F4C4500FD
:1000F00000009613470847086E14DE1445081811CF
:100100000C14AA1000388413350100000000000010
:10011000004E554C4C4445560000004708470847E0
:1001200008470847084508470847084508000045AC
:10013000080002000000000000004E414D455350F1
:1001400041434500D00E851045084508450845083F
:1001500045084508450800004508006E616D696E58
:100160006974202864657669636573293A0D0A000D
:100170004552524F522047455453544B2025730A41
:10018000006E616D6573706163653A2064657669C0
:100190006365206E616D6520257320746F6F206C20
:1001A0006F6E670D0A006E616D6573706163653A0D
:1001B0002063616E6E6F74206D6F756E74202564A0
:1001C0000D0A000A0A416C6C20757365722070720A
:1001D0006F636573736573206861766520636F6D07
:1001E000706C657465642E0A0A000A57656C636F4B
:1001F0006D6520746F2058696E75210A0A0D0958C3
:10020000696E75204F5320436F7079726967687407
:100210002028632920323031322C20323031350A07
:100220000D09446F75676C617320452E20436F6D17
:10023000657220616E64204352432050726573736F
:100240002C20496E632E0A0A0D0958696E75204FDD
:100250005320666F72204156522061746D6567614C
:10026000333238702076302E312028632920323006
:1002700032300A0D0952616661656C2049676E6112
:1002800063696F205A7572697461203C726166619E
:100290004066692E756E636F6D612E6564752E61A3
:1002A000723E0A0A0D0011241FBECFEFD8E0DEBF58
:1002B000CDBF11E0A0E0B1E0ECEDF1E302C00590AC
:1002C0000D92AE39B107D9F724E0AEE9B1E001C033
:1002D0001D92AA38B207E1F70C947D060E946115C1
:1002E0001DC38ECEFF93EF93FC0100820FB6F894EE
:1002F00004A21182228233824482558266827782EE
:1003000080869186A286B386C486D586E686F786E1
:10031000008B118B228B338B448B558B668B778BA9
:10032000808F918FA28FB38FC48FD58F0F90068E41
:100330000F90078E0DB600A20EB601A2FB0100A021
:100340000DBE01A00EBE078C0F92068C0F92D58DAC
:10035000C48DB38DA28D918D808D778966895589E5
:1003600044893389228911890089F784E684D584F8
:10037000C484B384A284918480847780668055800D
:10038000448033802280118004A00FBE0080EF9152
:10039000FF910895E0910001F0910101158287E637
:1003A000848386E0828388E981830895E091000157
:1003B000F0910101908195FFFDCF868308951F92F2
:1003C0000F920FB60F9211242F933F934F935F9389
:1003D0006F937F938F939F93AF93BF93EF93FF930D
:1003E0004091C6004093A40120E030E061E070E05D
:1003F00080E090E00E948413FF91EF91BF91AF9154
:100400009F918F917F916F915F914F913F912F912C
:100410000F900FBE0F901F901895A4E0B0E0E3E19D
:10042000F2E00C94CA1519821A821B821C8219826E
:100430001A821B821C8209811A812B813C8106173A
:1004400017072807390770F4000009811A812B81EA
:100450003C810F5F1F4F2F4F3F4F09831A832B8320
:100460003C83E9CF2496E4E00C94E61580E284B95D
:100470002D9A60E47DE083E090E0CFDF2D9860E48A
:100480007DE083E090E0C9CF1092CD011092CE01C3
:100490001092CF011092D00181E008951F920F9227
:1004A0000FB60F9211242F933F934F935F936F9347
:1004B0007F938F939F93AF93BF93EF93FF9380911D
:1004C000D7019091D801A091D901B091DA0101969C
:1004D000A11DB11D8093D7019093D801A093D9019C
:1004E000B093DA01883E9340A105B105D8F0809120
:1004F000DB019091DC01A091DD01B091DE0101965C
:10050000A11DB11D8093DB019093DC01A093DD015F
:10051000B093DE011092D7011092D8011092D90148
:100520001092DA018091D1019091D20126E0289FAA
:10053000F001299FF00D1124E758FC4F828193812F
:100540008430910584F4289FF001299FF00D112437
:10055000E758FC4F80819181019791838083892B9B
:1005600011F40E94CD0D8091D3019091D401A091FE
:10057000D501B091D6010197A109B10949F0809345
:10058000D3019093D401A093D501B093D6010DC0AF
:1005900081E090E0A0E0B0E08093D3019093D4019B
:1005A000A093D501B093D601C9D7FF91EF91BF9128
:1005B000AF919F918F917F916F915F914F913F91FB
:1005C0002F910F900FBE0F901F901895A8D6909363
:1005D000D2018093D10181E090E0A0E0B0E080936F
:1005E000D3019093D401A093D501B093D60110927A
:1005F000DB011092DC011092DD011092DE011092FD
:10060000D7011092D8011092D9011092DA0185B564
:10061000836085BD84B5826084BD89EF87BDEEE6C9
:10062000F0E08081826080830895CF92DF92EF9224
:10063000FF92CF93DF936B017C011FD5D82F83E00E
:10064000C816D104E104F10420F08D2F19D5CFEFA5
:1006500011C029E22C9DC0012D9D900D11248052C6
:100660009F4FFC0176960590F491E02D0995C82FD7
:100670008D2F06D58C2FDF91CF91FF90EF90DF90DB
:10068000CF900895A6E0B0E0E8E4F3E00C94BC1548
:100690002B8D29838C8CED8CFE8C09A13AA13E8395
:1006A000ECD4982E40E4E416F1041CF470E4E72E38
:1006B000F12C83E0E80EF11C9CEFE92227010F2CBE
:1006C000000C66087708C301B20169D21C010196CB
:1006D00079F480E791E00E94060E892DD1D4FFEFD6
:1006E000FA832FEF2B833FEF3C834FEF4D8309C1FC
:1006F00030919E0120919F018091A0019091A101D4
:10070000A12CB12C1BE5632F722F24E030E040E0D8
:1007100050E00E9490156B017C016A83DB82EC82C1
:10072000FD82169FF001179FF00D1124ED51FE4F31
:1007300080819181B701A6014F5F5F4F6F4F7F4F5F
:10074000892B79F440939E0150939F016093A001FF
:100750007093A1018FEFC816D806E806F806A1F439
:10076000B8CF342F252FCB01EFEFAE1ABE0AF4E03D
:10077000AF16B10441F640939E0150939F016093E0
:10078000A0019093A101A5CF2F8D38A112161306B9
:100790000CF09FCF80914F0390915003A091510393
:1007A000B09152030196A11DB11D80934F03909308
:1007B0005003A0935103B093520385E090E09183DE
:1007C00080833383228331AE20AE42AE53AE64AE1B
:1007D00075AEDF01AB5BBF4F1C92A02FBE818F01B6
:1007E00080E090E02D91F801E80FF91F26AF222359
:1007F00021F0019687309105A9F72BE52C9DC001CA
:100800002D9D900D1124FC01ED51FE4F5F01EA5B1F
:10081000FF4F8FEF9FEF91838083B8D1F501E85BA5
:10082000FF4F608371838283938338961082319661
:1008300011821082329611821082329611821082B9
:100840008AEAF10180838BA19CA1F50193A782A77D
:1008500020E030E0F801E20FF31F14822F5F3F4FDA
:1008600026323105B9F72BE52C9DF0012D9DF00DB9
:100870001124ED51FE4F298124AB85AA26A387A21E
:1008800020E820A7DE01959620E030E02817390700
:1008900064F44D915D91F901EE0FFF1FE00FF11F20
:1008A00055A744A72F5F3F4FF1CFFC017696EE0F7F
:1008B000FF1F4BE54C9D90014D9D300D1124E20F23
:1008C000F31FED51FE4F11821082F901ED51FE4FE1
:1008D000848F958F215F3D4F228F338F82E89DE07B
:1008E000D10111978C9311979C93119739813C9367
:1008F00011978C9245E0241A310824A235A2892D43
:10090000BFD36A817B818C819D812696E2E10C9424
:10091000D81561E070E080E090E0089537D1B9C368
:10092000A0E0B0E0E6E9F4E00C94C215EC016A0145
:100930007B01A3D3C114D104E104F10409F447C03D
:100940002091750330917603C217D30708F43FC096
:1009500020917703309178032C173D07C0F197E081
:10096000C90ED11CE11CF11C98EFC922A601DD0CB7
:10097000660B770BE0916F03F0917003AFE6B3E085
:10098000309741F0EC17FD0740F5DF010190F08151
:10099000E02DF6CF93E0AF36B907D1F11296CD90A6
:1009A000DD90ED90FC9015978D010B2E000C220B25
:1009B000330B0C0D1D1D2E1D3F1D6E010D2E000C49
:1009C000EE08FF08C016D106E206F30618F458D365
:1009D0008FEF82C0309741F41EC093E0AF36B90765
:1009E000E9F600E010E098016E010D2E000CEE0813
:1009F000FF08C40ED51EE61EF71E4F010F2E000C79
:100A0000AA08BB088C149D04AE04BF0420F4DFCFF9
:100A100000E010E09801C0907103D0907203E09064
:100A20007303F0907403C40ED51EE61EF71EC09229
:100A30007103D0927203E0927303F09274036E011B
:100A40000D2E000CEE08FF08C016D106E206F306D4
:100A500091F412960D911D912D913C911597400F97
:100A6000511F621F731F12964D935D936D937C937C
:100A70001597ED0108C0F983E8834A835B836C8393
:100A80007D83CD93DC934A815B816C817D818E0176
:100A90000D2E000C220B330B040F151F261F371FC2
:100AA0006F010F2E000CEE08FF080C151D052E051A
:100AB0003F0581F40281138124813581400F511F4C
:100AC000621F731F4A835B836C837D832081318126
:100AD00039832883D5D281E0CDB7DEB7ECE00C9422
:100AE000DE1526E0AC01249FC001259F900D112446
:100AF000FC01E758FC4F42815381443051051CF5FD
:100B0000BA01052E000C880B990B249FF001259F3C
:100B1000F00D1124E758FC4FA281B3814481558127
:100B2000249FF001259FF00D1124E758FC4FB3835B
:100B3000A2832A9FF0012B9FF00D1124E758FC4F50
:100B40005583448308956FEF7FEFCB01089546E00E
:100B5000469FF001479FF00D1124E758FC4FA281FA
:100B6000B38124813581429FF001439FF00D112410
:100B7000E758FC4FB383A2834A9FF0014B9FF00DCF
:100B80001124E758FC4F3583248308956091DF01D9
:100B90007091E0018091E1019091E2010895A0E05F
:100BA000B0E0E5EDF5E00C94C6156B017C0165D273
:100BB000C114D104E104F10449F197E0C90ED11C3C
:100BC000E11CF11C98EFC9220D2C000CEE08FF0867
:100BD000E0916F03F0917003A0E0B0E0C0E0D0E0DE
:100BE0002FE633E0309781F0428153816481758133
:100BF0004C155D056E057F0510F0D901EF019F01D1
:100C00000190F081E02DEECF209721F439D28FEFC3
:100C10009FEF41C00A811B812C813D81C016D10606
:100C2000E206F30629F4288139812D933C9311C003
:100C30000C191D092E093F090A831B832C833D8350
:100C4000AE01DD0F660B770B040F151F261F371F34
:100C5000E8014091710350917203609173037091A8
:100C600074034C195D096E097F0940937103509319
:100C70007203609373037093740302D2D701C601A9
:100C80000497A109B109AE01DD0F660B770B840F44
:100C9000951FA61FB71FCDB7DEB7E8E00C94E2158D
:100CA000CF92DF92EF92FF92CF93DF936B017C01A3
:100CB000E4D1D82F83E0C816D104E104F10420F078
:100CC0008D2FDED1CFEF11C029E22C9DC0012D9DCB
:100CD000900D112480529F4FFC0172960590F49163
:100CE000E02D0995C82F8D2FCBD18C2FDF91CF917F
:100CF000FF90EF90DF90CF9008957CD384E091E057
:100D00009F938F93A6D28AEE91E080D7D1D2109292
:100D10004F031092500310925103109252031092FD
:100D2000DB031092DC031092DD031092DE03E3EE8E
:100D3000F1E00F900F901182108216AE11AE10AE3E
:100D400013821282E55AFF4F83E0EF34F80799F7D8
:100D5000C3E5D3E00FE613E0188219821A821B82E2
:100D60001C82DDD29E838D8327960C171D07A1F769
:100D70008BDBD5D29093DA038093D90360E070E0E7
:100D8000CB018EDF61E070E080E090E089DF62E01F
:100D900070E080E090E084DF19DCE0916F03F09177
:100DA000700380E090E0DC01309761F04281538174
:100DB00064817581840F951FA61FB71F0190F08174
:100DC000E02DF2CFBF93AF939F938F9382E191E099
:100DD0009F938F933ED21F921F921F921F9288E281
:100DE00091E09F938F931F928AE08F931F9280E4EC
:100DF0008F931F921F9246DC2BE5269FF001279FC1
:100E0000F00D1124ED51FE4F81E090E0918380833D
:100E100039D11F921F921F921F928EE291E09F93F1
:100E20008F931F9284E18F9381E08F9388EB8F9350
:100E300081E695E19F938F9325DC51D48DB79EB7C2
:100E40004E960FB6F8949EBF0FBE8DBFFFCF1F9377
:100E5000CF93DF93FA0134973B9708F054C0643086
:100E600071058105910508F04EC03BE5369FF00104
:100E7000379FF00D1124ED51FE4F0190F081E02DD0
:100E8000EF2B09F440C036E0349FF001359FF00DA0
:100E90001124E758FC4F42815381022E000C330B82
:100EA000C6E016E0C49FF001C59FF00D1124E7587D
:100EB000FC4FA081B181A217B30718F04281538182
:100EC000F0CFC481D581169FD001179FB00D11249A
:100ED000A758BC4F13965C934E9312971596DC93CC
:100EE000CE9314972D933C931C9FD0011D9FB00D62
:100EF0001124A758BC4F13967C936E931297758359
:100F0000648381E001C08FEFDF91CF911F9108953D
:100F10004F925F926F927F928F929F92AF92BF9209
:100F2000CF92DF92EF92FF92CF93DF9300D000D069
:100F3000CDB7DEB76B017C01CA0104970B9708F0AF
:100F400088C084E0C816D104E104F10408F081C02F
:100F50008BE58C9DF0018D9DF00D1124ED51FE4F20
:100F600080819181892B09F474C04A01052E000CFF
:100F7000AA08BB0886E0849FF001859FF00D11242C
:100F8000E758FC4F82819381092E000CAA0BBB0B02
:100F90004F5F5F4F2A01550F6608770849825A82D2
:100FA0006B827C8266E049805A806B807C808415ED
:100FB0009505A605B70569F566E06C9DF0016D9D88
:100FC000F00D1124E758FC4F5382428295828482AF
:100FD00031832083689DA001699D500D1124FA0181
:100FE000E758FC4FD382C282649DF001659DF00DED
:100FF0001124E758FC4FD582C48284159505A605B7
:10100000B70529F180819181821B930B91838083A5
:101010001EC0689FF001699FF00D1124E758FC4F36
:10102000408151812417350758F0241B350B42812C
:1010300053814C015D01CA01550FAA0BBB0BB3CF05
:101040002C013D0189819A81AB81BC81B5CF81E0C2
:1010500001C08FEF0F900F900F900F90DF91CF9105
:10106000FF90EF90DF90CF90BF90AF909F908F90C8
:101070007F906F905F904F9008958FB7F894089588
:101080008FBF089578940895FFCF8FEF089581E082
:101090000895AF92BF92CF92DF92EF92FF921F938B
:1010A000CF93DF936B017C01E8DF182F84E0C81633
:1010B000D104E104F10488F48BE58C9DF0018D9D51
:1010C000F00D1124ED51FE4F80819181892B29F083
:1010D000C114D104E104F10421F4812FD1DF8FEF99
:1010E0009DC080914F0390915003A0915103B09106
:1010F00052030197A109B10980934F0390935003C4
:10110000A0935103B09352030297A105B1050CF4CB
:1011100070D58BE58C9D50018D9DB00C1124F5018F
:10112000E55DFD4F6081718182819381A701960108
:1011300072D3C0E0D0E0FE01EA0DFB1DEC5CFD4F78
:1011400060817181072E000C880B990B6EDA229654
:10115000C630D10581F78BE58C9DE0018D9DD00DCA
:101160001124CD51DE4F4AAD5BAD6CAD7DAD495F15
:101170005F4F6F4F7F4F487F052E000C660B770B3C
:1011800088AD99AD092E000CAA0BBB0B0496A11DCE
:10119000B11D841B950BA60BB70BC2DB888199810F
:1011A0008430910581F030F48130910549F0029747
:1011B00029F127C08630910551F0079721F021C011
:1011C00019821882BBD1C701B6014ED41AC0CA5BBE
:1011D000DF4F8881998127E0289FF001299FF00D3A
:1011E0001124ED5AFC4F81819281A381B481019633
:1011F000A11DB11D81839283A383B483C701B6016E
:10120000A6DC8BE58C9DF0018D9DF00D1124ED5138
:10121000FE4F11821082812F33DF81E0DF91CF9169
:101220001F91FF90EF90DF90CF90BF90AF90089507
:10123000CF93DF93C82F21DFD82FCA3011F48DE070
:10124000B5D88C2FB3D88D2F1BDF81E0DF91CF91E4
:101250000895A1E5B0E0EFE2F9E00C94C8158E0125
:10126000065A1F4FF801E190F1908F0121E530E01F
:1012700040E050E060E070E0CE0101960E943C1634
:101280009801A70160E570E0CE0101960E94431627
:101290008E010F5F1F4FF80181918F01882311F09C
:1012A000C7DFF9CF81E0CF5ADF4FE6E00C94E415B9
:1012B0000F931F93CF93DF938AE894E0A0E8BB27B6
:1012C0000196A11DB11DEC019093760380937503E7
:1012D0002FEF38E03093780320937703EFE6F3E0C5
:1012E0009183808319821882092E000CAA0BBB0BF4
:1012F0004FEF58E060E070E08A019B01081B190B7A
:101300002A0B3B0B0A831B832C833D8302831383AD
:1013100024833583DF91CF911F910F910895209100
:101320000201309103012031310544F5C9010296D3
:101330009093030180930201A9014F5F5F4F66E024
:10134000629FF001639FF00D1124E758FC4F538317
:1013500042838FEF9FEF9583848391838083649F83
:10136000F001659FF00D1124E758FC4F93838283B1
:101370003583248311821082C90108958FEF9FEF76
:1013800008958F929F92AF92BF92EF92FF920F9328
:101390001F93CF93DF934B015C018A0179016DDECE
:1013A000D82F83E088169104A104B10420F08D2F7A
:1013B00067DECFEF13C029E2289DC001299D900D63
:1013C000112480529F4FFC0174960590F491E02DFA
:1013D000A701B8010995C82F8D2F52DE8C2FDF9100
:1013E000CF911F910F91FF90EF90BF90AF909F9082
:1013F0008F900895F8943AD839D80E94CA0189CAC2
:10140000CF93DF939A01245031092B303105E8F551
:101410006430710581059105C0F52BE5269FF0012B
:10142000279FF00D1124ED51FE4F20813181232B98
:1014300061F14F5F5F4F26E0249FF001259FF00D83
:101440001124E758FC4FC481D581269FD001279FE6
:10145000B00D1124A758BC4F13965C934E9312976E
:101460001596DC93CE9314972C9FD0012D9FB00D31
:101470001124A758BC4F13967C936E9312977583D3
:101480006483462F372F282F04C04FEF3FEF2FEFF5
:101490009FEF642F732F822FDF91CF910895CF9309
:1014A0009C01245031092B303105F8F4C6E0C89F67
:1014B000F001C99FF00D1124E758FC4F22813381C0
:1014C0002430310594F40DDBC69FF001C79FF00D69
:1014D0001124E758FC4F2FEF3FEF358324833383EC
:1014E0002283462F372F282F04C04FEF3FEF2FEFD7
:1014F0009FEF642F732F822FCF9108956430710571
:1015000081059105C8F42BE5269FF001279FF00D7A
:101510001124ED51FE4F20813181232B69F022E00F
:1015200030E0318320834091D9035091DA03228146
:101530008EDC04D081E008958FEF0895CF92DF9282
:10154000EF92FF928091DB039091DC03A091DD0389
:10155000B091DE03181619061A061B0624F481E062
:101560008093DF036BC0C090DF01D090E001E0907A
:10157000E101F090E2018BE58C9DF0018D9DF00D75
:101580001124ED51FE4F80819181019729F522812F
:1015900033814091D9035091DA0386E0849FD001D2
:1015A000859FB00D1124A758BC4F12966D917C9168
:1015B0001397869FD001879FB00D1124A758BC4F69
:1015C0008D919C9182179307C8F182E090E09183FE
:1015D0008083C701B6013BDC8091D9039091DA0387
:1015E0005EDF6093DF017093E0018093E1019093EF
:1015F000E2012BE5269FD001279FB00D1124FD01AC
:10160000ED51FE4F41E050E05183408341E050E016
:1016100060E070E04093D3015093D4016093D50112
:101620007093D601BD0169517E4F2C9DC0012D9D47
:10163000900D112489519E4F0E947201FF90EF90EE
:10164000DF90CF900895613071058105910531F0EB
:101650006230710581059105F1F03FC08091DB0397
:101660009091DC03A091DD03B091DE03AC01BD01DC
:101670004F5F5F4F6F4F7F4F4093DB035093DC030F
:101680006093DD037093DE03892B8A2B8B2B19F576
:101690001092DF0320C08091DB039091DC03A091C6
:1016A000DD03B091DE03181619061A061B06ACF40A
:1016B0000197A109B1098093DB039093DC03A09308
:1016C000DD03B093DE03892B8A2B8B2B21F48091D1
:1016D000DF03811133DF81E008958FEF0895CF920A
:1016E000DF92EF92FF921F93CF93DF936B017C0108
:1016F000C4DC182F84E0C816D104E104F10470F4AE
:101700008BE58C9DF0018D9DF00D1124ED51FE4F68
:1017100080819181009711F0059729F0812FB0DC2D
:101720008FEF9FEF09C0D281C381C701B601E6DE0A
:10173000812FA6DC8D2F9C2FDF91CF911F91FF90E1
:10174000EF90DF90CF900895CF93DF93EC0195DC7D
:10175000C430D10558F497E09C9FF0019D9FF00D97
:101760001124ED5AFC4F9081911103C089DC8FEF59
:1017700003C0C18185DC8C2FDF91CF910895CF927A
:10178000DF92EF92FF92CF93DF936B017C0175DCC8
:10179000F7FE04C075DCCFEFDFEF35C0C091A201CA
:1017A000D091A30140E050E097E09E012F5F3F4FB2
:1017B0002430310514F020E030E09C9FF0019D9F23
:1017C000F00D1124ED5AFC4F6081611110C030936F
:1017D000A3012093A20191E09083CF3F9FEFD9070F
:1017E000C9F2C182D282E382F4824ADC0CC04F5F2C
:1017F0005F4F4430510511F0E901D7CF3093A30179
:101800002093A201C7CFCE01DF91CF91FF90EF903F
:10181000DF90CF9008958F929F92AF92BF92CF9218
:10182000DF92EF92FF92CF934B015C0169017A0145
:1018300024DCC82F84E088169104A104B10490F43C
:101840008BE5889DF001899DF00D1124ED51FE4F2F
:1018500080819181009731F0DF01A05BBF4F2C9117
:10186000222321F08C2F0CDC8FEF16C0E45BFF4F9E
:10187000C082D182E282F38221E02C9383309105F1
:1018800029F0079731F4C501B401EED0C501B401C8
:1018900035DE8C2FF5DB81E0CF91FF90EF90DF906C
:1018A000CF90BF90AF909F908F9008950F931F930C
:1018B000CF938C01E2DBC82F0430110558F487E088
:1018C000809FF001819FF00D1124ED5AFC4F808123
:1018D000811104C08C2FD4DB8FEF17C081819281DE
:1018E000A381B481AC01BD014F5F5F4F6F4F7F4F4C
:1018F0004183528363837483B7FF04C085819681DB
:10190000CEDDFCDD8C2FBCDB81E0CF911F910F91F0
:101910000895A0E0B0E0EFE8FCE00C94C5158C0160
:101920006A017B01AADBB82E0430110568F4F7FCCC
:101930000BC087E0809FE001819FD00D1124CD5A1C
:10194000DC4F8881811104C08B2D9ADB8FEF31C071
:1019500061E070E080E090E076DE8E010F5F1F4F67
:101960002596C114D104E104F104D9F0F801808175
:101970009181A281B381AC01BD014F5F5F4F6F4F79
:101980007F4F4083518362837383B7FF04C0888194
:10199000998185DDB3DDF1E0CF1AD108E108F108C6
:1019A000E0CF62E070E080E090E04DDE8B2D68DB00
:1019B00081E0CDB7DEB7E9E00C94E115CF92DF927C
:1019C000EF92FF92CF93DF9397FD33C06B017C01C1
:1019D000672B682B692B11F410D129C04EDBD82F4F
:1019E0004091D1015091D2016091DF017091E001ED
:1019F0008091E1019091E20196018ADAC82F8F3F30
:101A000019F48D2F3DDB16C08091DF019091E0012C
:101A10002BE5289FF001299FF00D1124ED51FE4F79
:101A200084E090E09183808389DD8D2F29DBC1E004
:101A300001C0CFEF8C2FDF91CF91FF90EF90DF901F
:101A4000CF9008956C3924EC720720E2820791054B
:101A500048F49B01AC01A8EEB3E00E94B215AEDFE2
:101A600081E008958FEF0895CF92DF92EF92FF9279
:101A7000CF936B017C0101DBC82F84E0C816D10431
:101A8000E104F10488F48BE58C9DF0018D9DF00D4F
:101A90001124ED51FE4F80819181009729F084300F
:101AA000910531F0079721F08C2FEADA8FEF24C0EF
:101AB00026E02C9DD0012D9DB00D1124A758BC4FC0
:101AC00012968D919C911397843091057CF4289FF8
:101AD000F001299FF00D1124E758FC4F208131813E
:101AE0008D919C91820F931F91838083C701B601D2
:101AF0002ED88C2FC5DA81E0CF91FF90EF90DF9048
:101B0000CF90089543D8C5CA1F93CF93DF93EC01BC
:101B1000B4DA182FC430D10558F487E08C9FF00157
:101B20008D9FF00D1124ED5AFC4F8081811104C06E
:101B3000812FA6DA8FEF2DC081819281A381B4819C
:101B40000197A109B10981839283A383B483B7FF6D
:101B50001DC06091DF017091E0018091E1019091E1
:101B6000E2012BE5269FD001279FB00D1124AD5136
:101B7000BE4F26E030E011963C932E93AA5BBF4FF8
:101B8000CD93DC93458156813BDCD8DC812F78DA1C
:101B900081E0DF91CF911F910895CF9361E070E0D4
:101BA00080E090E050DDC6E08091D1019091D201BB
:101BB000C89FF001C99FF00D1124E758FC4F228106
:101BC00033812430310574F4C29FF001C39FF00DBE
:101BD0001124E758FC4F20813181232B19F45FDC5D
:101BE0008DDCE2CF62E070E080E090E02CDDCF9110
:101BF000089583EC91E00AD047CACF933EDAC82F0C
:101C00009DDC8C2F3DDA81E0CF9108950F931F93D7
:101C1000CF93DF938C010E942416E801080F191F4F
:101C2000C017D10731F0FE01219685910E94D6019F
:101C3000F7CFDF91CF911F910F9108950F931F93CD
:101C400000E010E09801041715072607370764F431
:101C5000DC01ED91CD010F5F1F4F2F4F3F4FE11181
:101C6000F2CFB801C90104C06FEF7FEF8FEF9FEF94
:101C70001F910F910895A6E0B0E0E0E4FEE07CC77C
:101C8000182F9C831B0169017A01F7D9082F40E1C5
:101C900050E060E070E0812F9C81D0DF4B015C015F
:101CA00041E050E060E070E0C101C8DF2B013C0181
:101CB0002FEF82169206A206B20649F16F3F7F4FC0
:101CC0008F4F9F4F21F153E0C516D104E104F10479
:101CD000F0F48091E0039091E103A091E203B091D0
:101CE000E30384309105A105B1058CF419831C81AF
:101CF0001A8325E1289FA001299F500D11245E839E
:101D00004D8320E030E040E050E0BA0104C0802F75
:101D1000B7D98FEF42C0481559056A057B059CF479
:101D2000E981FA811191FA83E983ED81FE81E20F65
:101D3000F31FEC51FC4F10834F5F5F4F6F4F7F4F8E
:101D40002F5F3F4FE8CF14141504160417045CF4FA
:101D5000F101208135E1389FF001399FF00D112408
:101D6000EC51FC4F208B25E1289FF001299FF00DBD
:101D70001124EC51FC4FC18AD28AE38AF48A01967D
:101D8000A11DB11D8093E0039093E103A093E203B2
:101D9000B093E303802F74D981E02696E2E108C76F
:101DA000A0E2B0E0E5EDFEE0E9C686E0E9E3F1E0BF
:101DB000DE015B9601900D928A95E1F71092E003A7
:101DC0001092E1031092E2031092E3038BE591E09D
:101DD0001DDF80EEE82E80E0F82E88E090E09C0188
:101DE000205E3040690193E3892E91E0992EDE0157
:101DF0005B968E010F5F1F4F412C512C3201580111
:101E00008D91F8018193882339F03FEF431A530AEB
:101E1000630A730A8F01F4CFB6016E0D7F1D605205
:101E20007F4F4AE050E0CE01419617D7FE017196F0
:101E3000BFEF4B1A5B0A6B0A7B0A20E14216510482
:101E40006104710464F481919FEB980F9A3108F456
:101E5000805ED8018D938D018111EACF09C030E1F8
:101E6000431651046104710419F081E891E016C031
:101E7000BF92AF929F928F92ECD9F7012591359145
:101E80004591559167E271E0C501F5DE0F900F9025
:101E90000F900F908F3F19F486EA91E0B7DEF9E2D8
:101EA000EF0EF11C2BE5E21621E0F20609F09FCFC0
:101EB0002FEF3FEFA90167E271E089E391E0DBDEFC
:101EC00081E0A096E0E176C64F925F926F927F929A
:101ED0008F929F92AF92BF92DF92EF92FF920F93F9
:101EE0001F93CF93DF9300D000D01F92CDB7DEB702
:101EF000E090E003F090E1030091E2031091E3032E
:101F0000E982FA820B831C8324EE33E0812C912C2E
:101F10005401E980FA800B811C818E149F04A00675
:101F2000B106ACF47C01F901412C512C3201D701EE
:101F300041914423C1F00FEFE01AF00A5C91451380
:101F40000AC01FEF411A510A610A710AF0CF6FEF00
:101F50007FEFCB0165C00FEF801A900AA00AB00A8C
:101F60002B5E3F4FD6CF7D83D62E40E150E060E020
:101F700070E064DE698385E1889D8001899D100D94
:101F800011240C501C4F40E150E060E070E0C801AB
:101F900055DEA9812A2FAA0F330B440B550B2419A8
:101FA0003509460957092B013C01B1E04B1A51088C
:101FB00061087108420E531E641E751EE1E14E1643
:101FC0005104610471041CF62B013C01D801ED2D74
:101FD000FD8181E0481A5108610871081414150444
:101FE000160417041CF48D918193F3CF1216130677
:101FF000140615064CF4D7018D917D018193215073
:10200000310941095109F2CF85E1889DF001899D8F
:10201000F00D1124EC51FC4F6189728983899489F8
:102020000F900F900F900F900F90DF91CF911F9115
:102030000F91FF90EF90DF90BF90AF909F908F90A7
:102040007F906F905F904F900895CF92DF92EF92C4
:10205000FF92FB01C12CD12C7601C216D306E406F7
:10206000F50664F46191DC016D93CD01662341F0C6
:10207000BFEFCB1ADB0AEB0AFB0AEFCF8FEF01C0F1
:1020800081E0FF90EF90DF90CF900895A0E1B0E065
:10209000EBE4F0E177C58B0149015A0120E130E022
:1020A00040E050E0BC01CE010196CFDF8F3FF1F060
:1020B000C12CD12C76010DC020E130E040E050E091
:1020C000B801CE010196C1DF8FEFC81AD80AE80A1D
:1020D000F80A8091E0039091E103A091E203B091AE
:1020E000E303C816D906EA06FB0614F08FEF0AC010
:1020F000B801CE010196E8DE681579058A059B05D1
:10210000D9F2862F6096ECE059C5A0E1B0E0EAE88C
:10211000F0E140C5FC01CB018A0125913591459143
:102120005591BE016F5F7F4FB1DF682F880F770B2E
:10213000880B990B6F3F2FEF72078207920731F0E0
:102140009801AE014F5F5F4F1CD901C08FEF6096C1
:10215000E4E03CC50F931F93CF93DF930496FC01FB
:1021600085919591A591B591FA013397E830F105E4
:1021700008F058C0E859FF4FEFC420E5289F8001C0
:10218000299F100D1124E801C85CDB4F8CA19DA193
:10219000BBDCEA81FB8110818CA19DA187DB812FB3
:1021A00042C020E5289FF001299FF00D1124E85C32
:1021B000FB4F82E509C020E5289FF001299FF00D23
:1021C0001124E85CFB4F83E481AF81E02CC020E563
:1021D000289FF001299FF00D1124E85CFB4F8BE450
:1021E000F3CF20E5289FF001299FF00D1124E85C32
:1021F000FB4F84A195A1A8DA16C020E5289FF00125
:10220000299FF00D1124E85CFB4F81E082AF0BC0E9
:1022100020E5289FF001299FF00D1124E85CFB4F79
:1022200012AED3CF8FEFDF91CF911F910F91089511
:10223000A0E0B0E0EDE1F1E1A9C40496FC01C59095
:10224000D590E590F59080E58C9DE0018D9DD00DB9
:1022500011248E01085C1B4FD80194968D919C919E
:10226000959752DCD801ED91FC9111979F012F5F5A
:102270003F4F11963C932E938081AE01445A5B4FA1
:102280002417350720F0C45CDB4FCD93DC9390E539
:102290009C9DF0019D9DF00D1124E85CFB4F91ADDC
:1022A000933461F4DF01AE5BBF4F9C91992331F011
:1022B000ED5BFF4F9081891301C08EEFCDB7DEB784
:1022C000E8E080C4CF93C82F8A3011F08D3059F4E4
:1022D000FB0185AD882339F08DE090E00E94D601A6
:1022E0008AE090E015C080EE8C0F8F3570F0FB0116
:1022F00084AD882351F08EE590E00E94D60180E401
:102300008C0F082E000C990B03C08C2FCC0F990B4F
:102310000E94D601CF910895EF92FF921F93CF9321
:10232000DF93EC01142F8CA19DA10EDA082E000C76
:10233000990BAA0BBB0BB7FF03C080E090E0DC0158
:1023400029AD2235C1F48097A105B1050CF058C123
:10235000EA81FB81CF0101969B838A8310832A81C6
:102360003B81CE0184962817390708F423C1809752
:102370009B838A831FC11D3019F43EAD31111AE0D1
:10238000FE01E55BFF4F10822B34F1F48097A1052D
:10239000B1050CF0E6C0EA81FB81CF0101969B8379
:1023A0008A8310832A813B81CE01849628173907BE
:1023B00018F080979B838A838AAD882309F4FAC03A
:1023C000BE01812F7FDFF6C0FE01EB5BFF4F8081F6
:1023D0009E012A5B3F4F7901181320C031978081FD
:1023E0008823E1F08A819B81F90120813181821B60
:1023F000930B9E012C5F3F4F8217930708F4809642
:102400009B838A83F70110821182128213828DE0EE
:1024100090E00E94D6018AE090E0A9C0FE01E05C55
:10242000FF4F8081181721F031968081181352C018
:102430008FAD882309F44EC0F70180819181A2817C
:10244000B381181619061A061B060CF0D9C001979D
:10245000A109B10980839183A283B3838A819B817F
:102460009C0121503109AE014C5F5F4F24173507A5
:1024700018F03B832A8303C04F969B838A838AADDF
:10248000882309F4BDC0EA81FB81808180528F35A9
:1024900090F08CAD882379F088E090E00E94D6011E
:1024A0008BAD882341F080E290E00E94D60188E065
:1024B00090E00E94D60188E090E00E94D6018BADAA
:1024C000882309F49DC080E290E00E94D60188E054
:1024D00090E04DC01A3011F01D3049F58AAD8823C7
:1024E00019F0BE01812FEEDEEA81FB81CF0101965A
:1024F0009B838A8310832A813B81CE01849628178F
:10250000390718F080979B838A83F70140815181B6
:10251000628173814F5F5F4F6F4F7F4F8CA19DA191
:10252000F8D9F701108211821282138269C08CA13E
:102530009DA10AD9082E000C990BAA0BBB0BB7FF63
:1025400003C080E090E0DC01F701408151816281AD
:102550007381840F951FA61FB71F4F97A105B10563
:102560004CF0C15BDF4F8881082E000C990B0E9454
:10257000D60146C0FE01ED5BFF4F90818AAD191375
:102580001DC0319790819923C9F0882319F0BE01AD
:10259000812F98DEF70180819181A281B381892BFF
:1025A0008A2B8B2B69F5EA81FB81CF0101969B83F6
:1025B0008A8310838CA19DA179D922C0882319F028
:1025C000BE01812F7FDEF70180819181A281B381DD
:1025D0000196A11DB11D80839183A283B383EA81FB
:1025E000FB81CF0101969B838A8310832A813B81E3
:1025F000CE0184962817390718F080979B838A8329
:10260000DF91CF911F91FF90EF900895CF92DF92CD
:10261000EF92FF92CF93DF93FC01E55BFF4F2081A8
:1026200021116BC0EC012CA93DA98EA99FA92817E7
:10263000390761F02CA93DA98EA99FA92817390750
:1026400059F4C12CD12C7601C3941FC08AA99BA92F
:102650007BD888307CF351C0EEA1FFA1CF01019659
:102660009FA38EA38081082E000C990B0E94D60197
:102670002CA93DA9CE01C9962817390718F0019752
:102680009DAB8CABC12CD12C76018AA99BA95CD8BF
:1026900028E030E0281B310987FD3395CA94CD2806
:1026A000CE28CF2801F512161306ECF4EEA1FFA1F7
:1026B000CF0101969FA38EA38081082E000C990B59
:1026C0000E94D6012EA13FA1CE01C296281739073C
:1026D00018F008979FA38EA341E050E060E070E0FF
:1026E0008AA99BA916D92CA93DA98EA99FA928170B
:1026F000390719F48AA99BA927D8DF91CF91FF90B8
:10270000EF90DF90CF900895E4EEF0E06591759141
:1027100050E5569FC001579F900D1124885C9B4F38
:1027200060E070E0232B09F071CFF6CD0F931F937B
:10273000CF93DF930496FC0185919591A591B59176
:1027400020E5289F8001299F100D1124C801845C79
:102750009B4FE801C85CDB4F9B838A839983888306
:1027600060E070E0CB010BD89DA38CA3C8018E590B
:102770009B4F99A788A79FA38EA368E070E080E095
:1027800090E00E94BF0B9BAB8AAB00591B4F1FAB65
:102790000EAB1DAB0CAB83E489AF81E08AAF8BAF8E
:1027A0008CAF8DAF8EAF8FAFFE01E05CFF4F98E036
:1027B000908331969FE7908331968083319694E0A1
:1027C000908331968083319695E190833196108283
:1027D0001182128213823496808331961082319650
:1027E00093E19083319691E1908331968083C15B30
:1027F000DF4F87E0888381E0DF91CF911F910F91B8
:102800000895F89421E030E048E561E070E080E070
:1028100090E07ADF789408958F929F92AF92BF9262
:10282000DF92EF92FF920F931F93CF93DF93EC0110
:10283000D62EFC01349685909590A590B5908AE0AF
:1028400068130EC080E5889DF001899DF00D11246C
:10285000EA57FB4F8081882319F06DE0CE01DCDF61
:1028600080E5889D7001899DF00C11248701085C2A
:102870001B4FD801D2968D919C91D39745D9D80101
:102880009896ED91FC919997CF01019699969C931A
:102890008E939897D082C70186599B4F98962D9119
:1028A0003C9199972817390738F0C7018E599B4FEB
:1028B00099969C938E939897FE01B49685919591E5
:1028C000A0DF81E0DF91CF911F910F91FF90EF90FA
:1028D000DF90BF90AF909F908F900895A0E0B0E000
:1028E000E3E7F4E14FC18C017B0149015A0157FD37
:1028F0005CC0FC01349685919591A591B59120E538
:10290000289FF001299FF00D1124E85CFB4F81AD59
:10291000833469F181149104A104B10471F484A198
:1029200095A10E94A40B882E880F9908AA08BB08BD
:1029300081149104A104B104D1F1E701C12CD12C7F
:102940007601C814D904EA04FB044CF4C80170DC15
:1029500089938FEFC81AD80AE80AF80AF2CFD5018E
:10296000C401B7FE27C080E090E0DC0123C0C801AD
:102970005FDC8E3FF1F0E7018993C12CD12C760109
:10298000C394C814D904EA04FB0414F08C2D12C0BB
:102990008A30E1F38D30D1F3C8014ADC89939FEF8F
:1029A000C91AD90AE90AF90AECCF8FEF03C080E00F
:1029B00001C08EEFCDB7DEB7ECE000C1A0E0B0E023
:1029C000E3EEF4E1E3C08C0169017A0157FD11C027
:1029D000232B242B252B11F481E00CC0EB016991F2
:1029E000C8011ADF81E0C81AD108E108F108B9F777
:1029F000F3CF8FEFCDB7DEB7E8E0E4C0239A249A97
:102A0000259A2C9A08952C9898E087FF02C02B9A5B
:102A100001C02B982D9A2D98880F9150B1F788E01E
:102A200067FF02C02B9A01C02B982D9A2D98660F34
:102A30008150B1F72C9A089560E089E0E4DF6FE0FF
:102A40008AE0E1DF67E08BE0DEDF61E08CE0DBDF86
:102A500060E08FE0D8CF0F931F93CF9328E0829F41
:102A6000C00111248C01025B1E4FC0E0F80161918E
:102A70008F01CF5F8C2FC7DFC830C1F7CF911F9177
:102A80000F910895289902C0289A089528980895CA
:102A9000809188049091890437D8C0E08C2FDBDFC7
:102AA000F1DF61E070E080E090E00E94220DCF5FF6
:102AB000CA30A1F780918804909189040E94560C35
:102AC000E7CF9CDFB9DF209A289861E070E080E0D2
:102AD00090E00E94BF0B90938904809388041F921A
:102AE0001F928FE391E09F938F931F9284E18F93C6
:102AF00081E08F931F9288E495E19F938F930E94CA
:102B000042030E946F0B8DB79EB70A960FB6F894DA
:102B10009EBF0FBE8DBF61E070E080E090E0089541
:102B2000052E97FB16F400940FD057FD05D05BD00F
:102B300007FC02D046F408C0509540953095219589
:102B40003F4F4F4F5F4F08959095809570956195D9
:102B50007F4F8F4F9F4F0895EE0FFF1F0590F49109
:102B6000E02D099462D0A59F900DB49F900DA49F75
:102B7000800D911D112408952F923F924F925F92E4
:102B80006F927F928F929F92AF92BF92CF92DF927D
:102B9000EF92FF920F931F93CF93DF93CDB7DEB7E2
:102BA000CA1BDB0B0FB6F894DEBF0FBECDBF099476
:102BB0002A88398848885F846E847D848C849B84CD
:102BC000AA84B984C884DF80EE80FD800C811B81DB
:102BD000AA81B981CE0FD11D0FB6F894DEBF0FBE0A
:102BE000CDBFED010895A1E21A2EAA1BBB1BFD016A
:102BF0000DC0AA1FBB1FEE1FFF1FA217B307E407DC
:102C0000F50720F0A21BB30BE40BF50B661F771F33
:102C1000881F991F1A9469F7609570958095909513
:102C20009B01AC01BD01CF010895A29FB001B39FEC
:102C3000C001A39F700D811D1124911DB29F700DC5
:102C4000811D1124911D0895FC0105900020E9F7D4
:102C5000809590958E0F9F1F0895FB01DC014150D8
:102C6000504048F005900D920020C9F701C01D9218
:102C700041505040E0F70895DC0101C06D93415090
:102C80005040E0F70895AEE0B0E0E8E4F6E182CF2E
:102C90008C01FA0186E08C831A83098377FF02C0D6
:102CA00060E070E8CB0101979E838D83A901BF018D
:102CB000CE01019611D04D815E8157FD0AC02F8152
:102CC0003885421753070CF49A01F801E20FF31FFD
:102CD00010822E96E4E07ACFABE0B0E0E1E7F6E1D7
:102CE0004BCF6C017B018A01FC0117821682838124
:102CF00081FFBFC1CE0101963C01F6019381F7012E
:102D000093FD859193FF81917F01882309F4ADC1E3
:102D1000853239F493FD859193FF81917F0185324E
:102D200021F4B60190E0C0D1E8CF912C212C312CB8
:102D3000FFE1F315D8F08B3279F038F4803279F076
:102D40008332A1F4232D20611DC08D3261F08033C8
:102D500069F4232D216016C0832D8260382EE32D67
:102D6000E4603E2E2AC0F32DF8601DC037FC2DC054
:102D700020ED280F2A3040F08E32B9F436FC75C1B0
:102D8000232D2064322E19C036FE06C08AE0989E9C
:102D9000200D1124922E11C0EAE02E9E200D112448
:102DA000222EF32DF0623F2E08C08C3621F4832DA5
:102DB0008068382E02C0883641F4F70193FD859172
:102DC00093FF81917F018111B3CF982F9F7D9554FF
:102DD000933028F40C5F1F4F9FE399830DC0833617
:102DE00031F0833771F0833509F055C020C0F80108
:102DF000808189830E5F1F4F88248394912C530117
:102E000012C02801F2E04F0E511CF801A080B180E1
:102E100036FE03C0692D70E002C06FEF7FEFC50181
:102E200038D14C018201F32DFF773F2E15C02801C8
:102E300022E0420E511CF801A080B18036FE03C092
:102E4000692D70E002C06FEF7FEFC50117D14C0113
:102E5000F32DF0683F2E820133FC19C0822D90E0E3
:102E600088169906A0F4B60180E290E01DD12A945C
:102E7000F5CFF50137FC859137FE81915F01B601F1
:102E800090E012D121102A9421E0821A9108811435
:102E9000910479F7E1C0843611F0893639F5F801EB
:102EA00037FE07C060817181828193810C5F1F4F63
:102EB00008C060817181072E000C880B990B0E5F92
:102EC0001F4FF32DFF763F2E97FF09C090958095F9
:102ED000709561957F4F8F4F9F4FF0683F2E2AE08E
:102EE00030E0A3011DD1882E861844C0853731F407
:102EF000232D2F7EB22E2AE030E025C0932D997F1E
:102F0000B92E8F36C1F018F4883579F0AEC080370D
:102F100019F0883721F0A9C0E92FE061BE2EB4FE78
:102F20000DC0FB2DF460BF2E09C034FE0AC0292F4E
:102F30002660B22E06C028E030E005C020E130E077
:102F400002C020E132E0F801B7FE07C06081718164
:102F5000828193810C5F1F4F06C06081718180E088
:102F600090E00E5F1F4FA301DBD0882E8618FB2D4B
:102F7000FF773F2E36FE0DC0232D2E7FA22E891403
:102F800058F434FE0BC032FC09C0832D8E7EA82E6F
:102F900005C0B82CA32C03C0B82C01C0B92CA4FECA
:102FA0000FC0FE01E80DF11D8081803321F49A2DC0
:102FB000997EA92E09C0A2FE06C0B394B39404C0A2
:102FC0008A2D867809F0B394A3FC10C0A0FE06C039
:102FD000B21480F4280C922C9B180DC0B21458F433
:102FE000B60180E290E060D0B394F8CFB21418F448
:102FF0002B1802C0982C212CA4FE0FC0B60180E330
:1030000090E052D0A2FE16C0A1FC03C088E790E079
:1030100002C088E590E0B6010CC08A2D867851F098
:10302000A1FE02C08BE201C080E2A7FC8DE2B601E6
:1030300090E03AD0891430F4B60180E390E034D0C7
:103040009A94F8CF8A94F301E80DF11D8081B601BE
:1030500090E02AD08110F6CF222009F44ECEB6019E
:1030600080E290E021D02A94F7CFF6018681978103
:1030700002C08FEF9FEF2B96E2E19ACDFC01059005
:10308000615070400110D8F7809590958E0F9F1F6A
:103090000895FC016150704001900110D8F78095AF
:1030A00090958E0F9F1F08950F931F93CF93DF93DB
:1030B000FB01238121FD03C08FEF9FEF2CC022FF76
:1030C00016C046815781248135814217530744F445
:1030D000A081B1819D012F5F3F4F318320838C936D
:1030E000268137812F5F3F4F3783268314C08B01A2
:1030F000EC01FB010084F185E02D0995892BE1F6B7
:10310000D80116968D919C911797019617969C93CE
:103110008E931697CE01DF91CF911F910F91089555
:10312000FA01AA27283051F1203181F1E8946F93F8
:103130006E7F6E5F7F4F8F4F9F4FAF4FB1E03ED09E
:10314000B4E03CD0670F781F891F9A1FA11D680F3C
:10315000791F8A1F911DA11D6A0F711D811D911D6F
:10316000A11D20D009F468943F912AE0269F1124E4
:103170003019305D3193DEF6CF010895462F477048
:10318000405D4193B3E00FD0C9F7F6CF462F4F70A3
:10319000405D4A3318F0495D31FD4052419302D001
:1031A000A9F7EACFB4E0A6959795879577956795A7
:1031B000BA95C9F700976105710508959B01AC01A7
:1031C0000A2E06945795479537952795BA95C9F7CE
:0C31D000620F731F841F951FA01D08953F
:1031DC00C0000400201B5B306D1B5B324A1B5B3B49
:1031EC0048000A467265654D454D3A2564202862B3
:1031FC0079746573290A0A006E756C6C70006D61C8
:10320C00696E00202025730A002F6465762F004418
:10321C006973706C617950726F6365737300001819
:10322C001818181818183C42021C2042423C3C4208
:10323C00021C0242423C081828487E0808087E40BE
:10324C00407C0202423C1C20407C4242423C7E427A
:10325C000204081010103C42423C4242423C3C42A8
:0E326C00423E020408703C4242424242423C52
:00000001FF
